S00E00004D61737465722E73726563AA
S113000045C0000061C000005FC000005DC000008A
S11300105BC0000059C0000057C0000055C000007C
S113002053C0000051C000004FC000004DC000008C
S11300304BC0000065C2000047C0000045C000007E
S113004043C0000041C000003FC000003DC00000AC
S11300503BC0000039C0000037C0000035C00000BC
S113006033C0000031C000002FC000002DC00000CC
S11300702BC0000029C0000027C0000025C00000DC
S113008023C0000021C000001FC0000011241FBEB7
S1130090CFEFD0E4DEBFCDBF11E0A0E0B1E0E8EDEA
S11300A0F1E100E00BBF02C007900D92AA34B10742
S11300B0D9F721E0AAE4B1E001C01D92AB37B20741
S11300C0E1F76CD40C94EA089BCFCF93DF931F9293
S11300D0CDB7DEB7898389818130E1F081EC90E08E
S11300E021EC30E0F90120812861FC01208382ECBD
S11300F090E022EC30E0F90120812660FC012083AD
S113010084EC90E023E3FC01208385EC90E0FC0187
S113011010821BC089EC90E029EC30E0F9012081C9
S11301202861FC0120838AEC90E02AEC30E0F9019C
S113013020812660FC0120838CEC90E023E3FC0109
S113014020838DEC90E0FC01108200000F90DF9181
S1130150CF910895CF93DF931F92CDB7DEB78983F4
S11301608981813031F080EC90E0FC0180818072E3
S113017005C088EC90E0FC01808180720F90DF91D3
S1130180CF910895CF93DF931F92CDB7DEB78983C4
S11301908981813031F080EC90E0FC0180818078AD
S11301A005C088EC90E0FC01808180780F90DF919D
S11301B0CF910895CF93DF931F92CDB7DEB7898394
S11301C089818130A1F006C086EC90E0FC01808139
S11301D08093530180EC90E0FC0180818823A4F398
S11301E00CC08EEC90E0FC0180818093530188EC7C
S11301F090E0FC0180818823A4F300000F90DF913C
S1130200CF910895CF93DF9300D0CDB7DEB7898324
S11302106A838A81813089F0000080EC90E0FC01DF
S11302208081882F90E080729927892BB1F386EC26
S113023090E02981FC01208310C0000088EC90E04C
S1130240FC018081882F90E080729927892BB1F37B
S11302508EEC90E02981FC01208300000F900F9028
S1130260DF91CF910895CF93DF931F92CDB7DEB77F
S113027089838981813061F0000080EC90E0FC0189
S113028080818823D4F786EC90E0FC0180810BC048
S1130290000088EC90E0FC0180818823D4F78EEC88
S11302A090E0FC0180810F90DF91CF9108950F932E
S11302B01F93CF93DF9300D000D01F92CDB7DEB74A
S11302C09C838B836D831A82198289819A812B8105
S11302D03C818901080F191F80E0C5DFF801808384
S11302E089819A812B813C81820F931FFC0180813B
S11302F0893331F089819A8101969A838983E5CF84
S1130300000089819A812B813C81820F931FFC011B
S1130310108200000F900F900F900F900F90DF91BC
S1130320CF911F910F910895CF93DF93CDB7DEB78F
S113033027970FB6F894DEBF0FBECDBF9E838D8383
S11303406F838F818130D1F11A82198228C0000015
S113035080EC90E0FC018081882F90E080729927E6
S1130360892BB1F389819A812D813E81820F931F5C
S1130370FC018081882F90E0892BD9F086EC90E0F5
S113038029813A814D815E81240F351FF901208135
S1130390FC01208389819A8101969A8389838D81C6
S11303A09E810FD79C0189819A818217930778F2E5
S11303B001C0000060E08AE025DF28C01C821B82A7
S11303C01CC0000088EC90E0FC018081882F90E044
S11303D080729927892BB1F38EEC90E02B813C81BC
S11303E04D815E81240F351FF9012081FC0120839A
S11303F08B819C8101969C838B838D819E81E1D628
S11304009C018B819C8182179307D8F20000279668
S11304100FB6F894DEBF0FBECDBFDF91CF91089524
S1130420CF93DF9300D000D0CDB7DEB769837A8352
S11304308B839C8389819A81AB81BC8180930001E9
S113044090930101A0930201B093030180910001F4
S113045090910101A0910201B091030180934B019D
S113046090934C01A0934D01B0934E0100000F9066
S11304700F900F900F90DF91CF910895CF93DF935A
S1130480CDB7DEB781E890E02BE0FC01208388E85B
S113049090E02DE730E0FC01318320838FE690E08B
S11304A022E0FC01208384E890E0FC0111821082A8
S11304B08091000190910101A0910201B09103018A
S11304C080934B0190934C01A0934D01B0934E0146
S11304D08FE590E02FE530E0F90120812068FC01F0
S11304E020830000DF91CF910895CF93DF93CDB7A0
S11304F0DEB781E080934A010000DF91CF91089537
S11305001F920F9200905F000F92112400905B00E5
S11305100F922F933F934F935F936F937F938F9398
S11305209F93AF93BF93EF93FF93CF93DF93CDB795
S1130530DEB780914B0190914C01A0914D01B09197
S11305404E010197A109B10980934B0190934C018D
S1130550A0934D01B0934E0180914B0190914C01B9
S1130560A0914D01B0914E01892B8A2B8B2B89F4DC
S1130570BCDF8091000190910101A0910201B09132
S1130580030180934B0190934C01A0934D01B093D0
S11305904E010000DF91CF91FF91EF91BF91AF9198
S11305A09F918F917F916F915F914F913F912F9187
S11305B00F9000925B000F9000925F000F901F90CD
S11305C01895CF93DF93CDB7DEB72C970FB6F89479
S11305D0DEBF0FBECDBF6D837E838F83988729874F
S11305E03A874B875C878D819E81AF81B885298549
S11305F03A854B855C85BC01CD01AFD5DC01CB01CF
S113060089839A83AB83BC8389819A81AB81BC81C2
S1130610892B8A2B8B2B29F489859A85AB85BC85FC
S113062011C089859A85AB85BC858D839E83AF83F4
S1130630B88789819A81AB81BC8189879A87AB8786
S1130640BC87D1CFBC01CD012C960FB6F894DEBF88
S11306500FBECDBFDF91CF910895CF93DF93CDB778
S1130660DEB7C056D1090FB6F894DEBF0FBECDBFBA
S11306709E01215A3F4FF90191838083CE01815A13
S11306809F4FFC01808191818230910551F183302B
S1130690910509F45EC0892B09F066C080E072DD23
S11306A0882331F080E0DFDD80935F0180E082DD2C
S11306B080915F01813349F4CE01815A9F4F21E03B
S11306C030E0FC013183208356C080915F01823386
S11306D009F051C0CE01815A9F4FFC011182108252
S11306E04AC080E04FDD882331F080E0BCDD809398
S11306F05F0180E05FDD80915F01823339F4CE01D8
S1130700815A9F4FFC011182108236C080915F0193
S1130710833349F4CE01815A9F4F21E030E0FC013C
S11307203183208329C080915F01843349F4CE0151
S1130730815A9F4F23E030E0FC01318320831CC0A9
S1130740CE01815A9F4F22E030E0FC0131832083A7
S113075013C010925F01CE01815A9F4F22E030E016
S1130760FC013183208308C0CE01815A9F4FFC01D4
S11307701182108201C00000CE01815A9F4FFC01FA
S1130780808191818130910571F08230910524F44A
S1130790892B09F4F0C0E8C08230910529F1039750
S11307A009F4D4C0E1C080E0D5DC882349F060E0DE
S11307B08BE291E0B9DD85E290E021E0FC01208349
S11307C010925F01C4D280914F0190915001909397
S11307D0520180935101CE01815A9F4F22E030E0B3
S11307E0FC0131832083CAC010925F01B0D22091F2
S11307F05101309152018091040190910501A901A8
S1130800481B590BCA019C0180914F0190915001E2
S11308108217930798F020915101309152018091F1
S1130820040190910501820F931F9C0180914F0157
S1130830909150012817390708F09FC060E084E3C5
S113084091E072DD80E090E0AAEFB3E489839A83BB
S1130850AB83BC8320E030E04AE753E469817A81CA
S11308608B819C8117D4DC01CB018D839E83AF8364
S1130870B88720E030E040E85FE36D817E818F81BE
S11308809885BAD288232CF481E090E09A878987EE
S11308903BC020E03FEF4FE757E46D817E818F81BD
S11308A09885F4D318163CF520E030E040E251E49A
S11308B069817A818B819C81EDD3DC01CB01BC0100
S11308C0CD0106D3DC01CB019A8789870FC089E16A
S11308D090E09C878B878B859C850197F1F79C879B
S11308E08B8789859A8501979A87898789859A85CF
S11308F0892B69F713C06D817E818F819885E8D239
S1130900DC01CB019A87898789859A859E878D87A3
S11309108D859E850197F1F79E878D87209124010F
S113092030912501CE010F96B90144D4CE010F9622
S113093066E071E034D4CE010F9660E0F5DCCE01C0
S1130940815A9F4FFC011182108217C0000080E081
S113095019DC8823E1F360E086E091E0A8DC60E044
S113096086E091E0E1DC0AC0CE01815A9F4FFC0190
S11309701182108203C0000001C00000CE01815A20
S11309809F4FFC0180819181C05ADF4F0FB6F894CC
S1130990DEBF0FBECDBFDF91CF910895CF93DF931C
S11309A0CDB7DEB7A4970FB6F894DEBF0FBECDBFA8
S11309B084E290E02FEFFC01208385E290E0FC01CB
S11309C0108281E290E021E230E0F901208122608E
S11309D0FC01208381E290E021E230E0F9012081F2
S11309E02E7FFC01208386E990E0A0E0B0E08983BB
S11309F09A83AB83BC8386E990E0A0E0B0E08D836A
S1130A009E83AF83B88786E990E0A0E0B0E0898751
S1130A109A87AB87BC8781E090E0A0E0B0E08D8747
S1130A209E87AF87B88B29813A814B815C8189810C
S1130A309A81AB81BC81BC01CD01C3DDDC01CB015A
S1130A408D879E87AF87B88B8D859E85AF85B88946
S1130A50898B9A8BAB8BBC8B89819A81AB81BC814E
S1130A6029893A894B895C89BC01CD0176D3DA01A5
S1130A70C9018D8B9E8BAF8BB88F8D819E81AF8189
S1130A80B88529893A894B895C89BC01CD0165D334
S1130A90DA01C901898F9A8FAB8FBC8F89859A85BA
S1130AA0AB85BC8529893A894B895C89BC01CD0118
S1130AB054D3DA01C9018D8F9E8FAF8FB8A384E51B
S1130AC091E09CA38BA381E090E09AA389A3109268
S1130AD054018D899E89AF89B88D80935501909377
S1130AE05601A0935701B09358018D899E89AF890F
S1130AF0B88D8093590190935A01A0935B01B093F0
S1130B005C018DE293E090935E0180935D0189899D
S1130B109A89AB89BC89BC01CD0182DCAFDC80E061
S1130B20D4DA60E08AE391E0FFDB80E090E0A49611
S1130B300FB6F894DEBF0FBECDBFDF91CF910895FD
S1130B40CF93DF93CDB7DEB7A0970FB6F894DEBF8F
S1130B500FBECDBF82E290E022E230E0F9012081B5
S1130B602260FC01208380E090E0A0E2B1E489836C
S1130B709A83AB83BC832BEA3AEA4AEA5EE369814F
S1130B807A818B819C8186D2DC01CB018D839E830B
S1130B90AF83B88720E030E040E85EE369817A8182
S1130BA08B819C8177D2DC01CB0189879A87AB87C3
S1130BB0BC8720E030E040E85FE36D817E818F8177
S1130BC098851AD188231CF481E08D87A7C020E082
S1130BD03FEF4FE757E469857A858B859C8556D22C
S1130BE018160CF074C020E030E04AE754E4698140
S1130BF07A818B819C8104D1DC01CB018E879F8714
S1130C00A88BB98B20E030E04AE753E46E857F85FA
S1130C10888999893FD2DC01CB018A8B9B8BAC8B71
S1130C20BD8B20E030E040E85FE36A897B898C89F2
S1130C309D89E2D088232CF481E090E09F8B8E8BF9
S1130C403BC020E03FEF4FE757E46A897B898C89FA
S1130C509D891CD218163CF520E030E040E251E4B6
S1130C606E857F858889998915D2DC01CB01BC0109
S1130C70CD012ED1DC01CB019F8B8E8B0FC089E17E
S1130C8090E0998F888F888D998D0197F1F7998FCE
S1130C90888F8E899F8901979F8B8E8B8E899F89E0
S1130CA0892B69F73BC06A897B898C899D8910D11E
S1130CB0DC01CB019F8B8E8B8E899F899B8F8A8FC2
S1130CC08A8D9B8D0197F1F79B8F8A8F27C020E037
S1130CD030E04FE753E46D817E818F819885D6D1D2
S1130CE01816A4F469857A858B859C85F1D0DC017E
S1130CF0CB019D8F8C8F8C8D9D8D9F8F8E8F8E8D34
S1130D009F8D0197F1F79F8F8E8F0EC06D817E812D
S1130D108F819885DDD0DC01CB018D878D8588A3FB
S1130D2088A18A95F1F788A382E290E022E230E07C
S1130D30F90120812C7FFC0120830000A0960FB6CE
S1130D40F894DEBF0FBECDBFDF91CF910895CF934E
S1130D50DF93CDB7DEB7F4DE000080E290E0FC0163
S1130D608081882F90E081709927892BB1F381E8E5
S1130D7090E021E0FC012083000080E290E0FC018F
S1130D808081882F90E081709927892BB1F781E8C1
S1130D9090E0FC01108284E890E0FC018081918164
S1130DA0909361018093600184E890E0FC011182DA
S1130DB010828091600190916101CC01A0E0B0E0CB
S1130DC0BC01CD01B1D0DC01CB012DEC3CE043E111
S1130DD054E4BC01CD0114D0DC01CB01BC01CD0134
S1130DE077D0DC01CB019093500180934F0146DB17
S1130DF00000DF91CF910895D4D008F481E00895E4
S1130E000CD00AC102D140F0F9D030F021F45F3F98
S1130E1019F0EBC0511134C1EEC00FD198F39923EE
S1130E20C9F35523B1F3951B550BBB27AA276217AA
S1130E307307840738F09F5F5F4F220F331F441FEF
S1130E40AA1FA9F333D00E2E3AF0E0E830D0915027
S1130E505040E695001CCAF729D0FE2F27D0660F14
S1130E60771F881FBB1F261737074807AB07B0E853
S1130E7009F0BB0B802DBF01FF2793585F4F2AF069
S1130E809E3F510568F0B1C0FBC05F3FECF3983E54
S1130E90DCF3869577956795B795F7959F5FC9F7C6
S1130EA0880F911D9695879597F90895E1E0660F4F
S1130EB0771F881FBB1F621773078407BA0720F0C8
S1130EC0621B730B840BBA0BEE1F88F7E095089531
S1130ED0BCD088F09F5790F0B92F9927B751A0F054
S1130EE0D1F0660F771F881F991F1AF0BA95C9F7BA
S1130EF012C0B13081F0C3D0B1E00895C0C0672FF3
S1130F00782F8827B85F39F0B93FCCF38695779569
S1130F106795B395D9F73EF4909580957095619552
S1130F207F4F8F4F9F4F0895E89409C097FB3EF47D
S1130F3090958095709561957F4F8F4F9F4F992322
S1130F40A9F0F92F96E9BB279395F69587957795A0
S1130F506795B795F111F8CFFAF4BB0F11F460FF60
S1130F601BC06F5F7F4F8F4F9F4F16C0882311F0B8
S1130F7096E911C0772321F09EE8872F762F05C0CC
S1130F80662371F096E8862F70E060E02AF09A9567
S1130F90660F771F881FDAF7880F9695879597F95C
S1130FA00895990F0008550FAA0BE0E8FEEF1616F6
S1130FB01706E807F907C0F012161306E407F50749
S1130FC098F0621B730B840B950B39F40A2661F0BD
S1130FD0232B242B252B21F408950A2609F4A14060
S1130FE0A6958FEF811D811D089597F99F6780E86D
S1130FF070E060E008959FEF80EC089500240A9467
S11310001616170618060906089500240A941216DF
S11310101306140605060895092E0394000C11F412
S1131020882352F0BB0F40F4BF2B11F460FF04C0BF
S11310306F5F7F4F8F4F9F4F089557FD9058440F18
S1131040551F59F05F3F71F04795880F97FB991F23
S113105061F09F3F79F087950895121613061406E0
S1131060551FF2CF4695F1DF08C01616170618066D
S1131070991FF1CF86957105610508940895E89448
S1131080BB2766277727CB0197F908958ADF08F4F1
S11310908FEF08950BD0C0CFB1DF28F0B6DF18F082
S11310A0952309F0A2CFA7CF1124EACFC6DFA0F37E
S11310B0959FD1F3950F50E0551F629FF001729FE9
S11310C0BB27F00DB11D639FAA27F00DB11DAA1F08
S11310D0649F6627B00DA11D661F829F2227B00D55
S11310E0A11D621F739FB00DA11D621F839FA00DE0
S11310F0611D221F749F3327A00D611D231F849F30
S1131100600D211D822F762F6A2F11249F57504086
S11311108AF0E1F088234AF0EE0FFF1FBB1F661F21
S1131120771F881F91505040A9F79E3F510570F0DA
S11311305CCFA6CF5F3FECF3983EDCF386957795C2
S11311406795B795F795E7959F5FC1F7FE2B880FD5
S1131150911D9695879597F90895A1E21A2EAA1BD9
S1131160BB1BFD010DC0AA1FBB1FEE1FFF1FA21753
S1131170B307E407F50720F0A21BB30BE40BF50B50
S1131180661F771F881F991F1A9469F760957095D9
S1131190809590959B01AC01BD01CF010895FB01A1
S11311A0DC010D900020E9F7119701900D920020C9
S11311B0E1F70895FB01DC0101900D920020E1F7B5
S11311C00895FC0101900020E9F7809590958E0F19
S10B11D09F1F0895F894FFCF5E
S11311D801000000030044656661756C745F6E610C
S11311E86D65000000000000000000000000000021
S11311F80000000026016E616D65007374617475EA
S1131208734F4E00416C61726D0041542B4E414D39
S10D1218456E616D650A002564004F
S9030000FC
