S00E00004D61737465722E73726563AA
S113000045C0000060C000005EC000005CC000008D
S11300105AC0000058C0000056C0000054C0000080
S113002052C0000050C000004EC000004CC0000090
S11300304AC0000016C2000046C0000044C00000D0
S113004042C0000040C000003EC000003CC00000B0
S11300503AC0000038C0000036C0000034C00000C0
S113006032C0000030C000002EC000002CC00000D0
S11300702AC0000028C0000026C0000024C00000E0
S113008022C0000020C000001EC0000011241FBEBA
S1130090CFEFD0E4DEBFCDBF11E0A0E0B1E0EAE9EC
S11300A0F8E000E00BBF02C007900D92A431B10745
S11300B0D9F721E0A4E1B1E001C01D92A632B20754
S11300C0E1F7F4D2E8C39CCFCF93DF931F92CDB76F
S11300D0DEB7898389818130E1F081EC90E021EC05
S11300E030E0F90120812861FC01208382EC90E05A
S11300F022EC30E0F90120812660FC01208384ECAD
S113010090E023E3FC01208385EC90E0FC01108265
S11301101BC089EC90E029EC30E0F90120812861D2
S1130120FC0120838AEC90E02AEC30E0F901208184
S11301302660FC0120838CEC90E023E3FC01208307
S11301408DEC90E0FC01108200000F90DF91CF91C4
S11301500895CF93DF931F92CDB7DEB7898389814A
S1130160813031F080EC90E0FC018081807205C028
S113017088EC90E0FC01808180720F90DF91CF9138
S11301800895CF93DF931F92CDB7DEB7898389811A
S1130190813031F080EC90E0FC018081807805C0F2
S11301A088EC90E0FC01808180780F90DF91CF9102
S11301B00895CF93DF931F92CDB7DEB789838981EA
S11301C08130A1F006C086EC90E0FC018081809330
S11301D0190180EC90E0FC0180818823A4F30CC019
S11301E08EEC90E0FC0180818093190188EC90E012
S11301F0FC0180818823A4F300000F90DF91CF914C
S11302000895CF93DF9300D0CDB7DEB789836A8397
S11302108A81813089F0000080EC90E0FC018081CB
S1130220882F90E080729927892BB1F386EC90E0B7
S11302302981FC01208310C0000088EC90E0FC01BF
S11302408081882F90E080729927892BB1F38EECFE
S113025090E02981FC01208300000F900F90DF9132
S1130260CF910895CF93DF931F92CDB7DEB78983E3
S11302708981813061F0000080EC90E0FC01808194
S11302808823D4F786EC90E0FC0180810BC0000049
S113029088EC90E0FC0180818823D4F78EEC90E018
S11302A0FC0180810F90DF91CF910895CF93DF936C
S11302B0CDB7DEB727970FB6F894DEBF0FBECDBF1C
S11302C09E838D836F838F81813049F11A821982D5
S11302D01CC0000080EC90E0FC018081882F90E03D
S11302E080729927892BB1F386EC90E029813A81B9
S11302F04D815E81240F351FF9012081FC0120838B
S113030089819A8101969A8389838D819E81BAD24B
S11303109C0189819A8182179307D8F228C01C8294
S11303201B821CC0000088EC90E0FC018081882FB7
S113033090E080729927892BB1F38EEC90E02B81A9
S11303403C814D815E81240F351FF9012081FC0120
S113035020838B819C8101969C838B838D819E81DC
S113036091D29C018B819C8182179307D8F2000063
S113037027960FB6F894DEBF0FBECDBFDF91CF91A5
S11303800895CF93DF9300D000D0CDB7DEB7698353
S11303907A838B839C8389819A81AB81BC8180938E
S11303A0000190930101A0930201B0930301809195
S11303B0000190910101A0910201B0910301809389
S11303C0150190931601A0931701B0931801000032
S11303D00F900F900F900F90DF91CF910895CF93CE
S11303E0DF93CDB7DEB781E890E02BE0FC012083FA
S11303F088E890E02DE730E0FC01318320838FE62C
S113040090E022E0FC01208384E890E0FC0111826A
S113041010828091000190910101A0910201B0919C
S113042003018093150190931601A0931701B093D3
S113043018018FE590E02FE530E0F9012081206874
S1130440FC0120830000DF91CF910895CF93DF93C7
S1130450CDB7DEB781E0809314010000DF91CF9126
S113046008951F920F9200905F000F921124009044
S11304705B000F922F933F934F935F936F937F9300
S11304808F939F93AF93BF93EF93FF93CF93DF9398
S1130490CDB7DEB78091150190911601A091170197
S11304A0B09118010197A109B109809315019093A6
S11304B01601A0931701B093180180911501909132
S11304C01601A0911701B0911801892B8A2B8B2B4F
S11304D089F4BCDF8091000190910101A091020197
S11304E0B09103018093150190931601A093170115
S11304F0B09318010000DF91CF91FF91EF91BF916C
S1130500AF919F918F917F916F915F914F913F91A7
S11305102F910F9000925B000F9000925F000F905C
S11305201F901895CF93DF93CDB7DEB72C970FB6F6
S1130530F894DEBF0FBECDBF6D837E838F83988713
S113054029873A874B875C878D819E81AF81B885E7
S113055029853A854B855C85BC01CD0171D1DC01CF
S1130560CB0189839A83AB83BC8389819A81AB81D4
S1130570BC81892B8A2B8B2B29F489859A85AB85A1
S1130580BC8511C089859A85AB85BC858D839E8386
S1130590AF83B88789819A81AB81BC8189879A8727
S11305A0AB87BC87D1CFBC01CD012C960FB6F89494
S11305B0DEBF0FBECDBFDF91CF910895CF93DF9300
S11305C000D0CDB7DEB79A83898389819A8182303E
S11305D0910509F18330910519F1892B31F580E0FA
S11305E0D0DD882331F080E03DDE8093250180E07A
S11305F0E0DD80912501813329F481E090E09A8344
S1130600898316C080912501823391F482E090E0C1
S11306109A8389830DC0109225011A82198209C018
S1130620109225011A82198204C01A82198201C00B
S1130630000089819A818130910561F082309105B1
S11306401CF4892B29F121C08230910589F003978C
S113065009F11BC080E07DDD8823F1F060E084E0D7
S113066091E024DE85E290E021E0FC01208314C0C7
S113067080E06FDD882391F060E08BE091E016DE8E
S113068085E290E0FC01108209C01A82198207C039
S1130690000005C0000003C0000001C00000898103
S11306A09A810F900F90DF91CF910895CF93DF93AC
S11306B0CDB7DEB7A5970FB6F894DEBF0FBECDBF9A
S11306C084E290E02FEFFC01208385E290E0FC01BE
S11306D0108286E990E0A0E0B0E089839A83AB833E
S11306E0BC8386E990E0A0E0B0E08D839E83AF8375
S11306F0B88786E990E0A0E0B0E089879A87AB8765
S1130700BC8781E090E0A0E0B0E08D879E87AF8752
S1130710B88B29813A814B815C8189819A81AB8133
S1130720BC81BC01CD01FEDEDC01CB018D879E873F
S1130730AF87B88B8D859E85AF85B889898B9A8B59
S1130740AB8BBC8B89819A81AB81BC8129893A8925
S11307504B895C89BC01CD0173D0DA01C9018D8B51
S11307609E8BAF8BB88F8D819E81AF81B88529898F
S11307703A894B895C89BC01CD0162D0DA01C90197
S1130780898F9A8FAB8FBC8F89859A85AB85BC8501
S113079029893A894B895C89BC01CD0151D0DA01A0
S11307A0C9018D8F9E8FAF8FB8A38AE191E09DA37D
S11307B08CA381E090E09AA389A310921A018D89F9
S11307C09E89AF89B88D80931B0190931C01A093DF
S11307D01D01B0931E018D899E89AF89B88D8093C8
S11307E01F0190932001A0932101B09322018EED6B
S11307F092E0909324018093230189899A89AB899B
S1130800BC89BC01CD01BDDDEADD80E05DDC81E4B5
S11308108BA380E0B6DC8823E1F380E023DD8093C2
S1130820250180E0C6DC80912501813391F760E0E9
S11308308BA1E7DC85E290E021E0FC012083E9CF95
S1130840A1E21A2EAA1BBB1BFD010DC0AA1FBB1FD0
S1130850EE1FFF1FA217B307E407F50720F0A21B42
S1130860B30BE40BF50B661F771F881F991F1A94AF
S113087069F760957095809590959B01AC01BD01D9
S1130880CF010895FC0101900020E9F7809590952F
S10D08908E0F9F1F0895F894FFCF08
S113089A010000004C45445F4F4E004C45445F4FF5
S10708AA46460000BA
S9030000FC
