S00E00004D61737465722E73726563AA
S11300008AC00000A5C00000A3C00000A1C0000079
S11300109FC000009DC000009BC0000099C000006C
S113002097C0000095C0000093C0000091C000007C
S11300308FC00000FEC000008BC0000089C000001B
S113004087C0000085C0000083C0000081C000009C
S11300507FC000007DC000007BC0000079C00000AC
S113006077C0000075C0000073C0000071C00000BC
S11300706FC000006DC000006BC0000069C00000CC
S113008067C0000065C0000063C00000CF04CF0457
S1130090CF04CF04CF04CF04CF04CF04CF04CF04C4
S11300A0CF04CF04CF04CF04CF04CF04CF04CF04B4
S11300B0CF04CF04CF04CF04CF04CF04CF04CF04A4
S11300C0CF04CF04CF04CF04CF04CF04CF04CF0494
S11300D0CF04CF04CF04CF04CF04CF04CF04CF0484
S11300E0CF04CF04CF04CF04CF04CF04CF048E04B5
S11300F0930498049D04A204A704AC04B104B604B8
S1130100CF04CF04CF04CF04CF04CF04CF04BB0467
S1130110C004C504CA0411241FBECFEFD0E4DEBF5F
S1130120CDBF11E0A0E0B1E0EAE7FFE000E00BBFE3
S113013002C007900D92A632B107D9F721E0A6E2DA
S1130140B1E001C01D92A733B207E1F7B5D413C7DC
S113015057CFCF93DF9300D000D0CDB7DEB76983FC
S11301607A838B839C8389819A81AB81BC818093C0
S1130170000190930101A0930201B09303018091C7
S1130180000190910101A0910201B09103018093BB
S1130190270190932801A0932901B0932A0100001C
S11301A00F900F900F900F90DF91CF910895CF9300
S11301B0DF93CDB7DEB781E890E02BE0FC0120832C
S11301C088E890E02DE730E0FC01318320838FE65E
S11301D090E022E0FC01208384E890E0FC0111829D
S11301E010828091000190910101A0910201B091CF
S11301F003018093270190932801A0932901B093D0
S11302002A018FE590E02FE530E0F9012081206894
S1130210FC0120830000DF91CF910895CF93DF93F9
S1130220CDB7DEB781E0809326010000DF91CF9146
S113023008951F920F9200905F000F921124009076
S11302405B000F922F933F934F935F936F937F9332
S11302508F939F93AF93BF93EF93FF93CF93DF93CA
S1130260CDB7DEB78091270190912801A091290193
S1130270B0912A010197A109B109809327019093B4
S11302802801A0932901B0932A018091270190911C
S11302902801A0912901B0912A01892B8A2B8B2B4B
S11302A089F4BCDF8091000190910101A0910201C9
S11302B0B09103018093270190932801A093290111
S11302C0B0932A010000DF91CF91FF91EF91BF918C
S11302D0AF919F918F917F916F915F914F913F91DA
S11302E02F910F9000925B000F9000925F000F908F
S11302F01F901895CF93DF93CDB7DEB72C970FB629
S1130300F894DEBF0FBECDBF6D837E838F83988745
S113031029873A874B875C878D819E81AF81B88519
S113032029853A854B855C85BC01CD01AAD5DC01C4
S1130330CB0189839A83AB83BC8389819A81AB8106
S1130340BC81892B8A2B8B2B29F489859A85AB85D3
S1130350BC8511C089859A85AB85BC858D839E83B8
S1130360AF83B88789819A81AB81BC8189879A8759
S1130370AB87BC87D1CFBC01CD012C960FB6F894C6
S1130380DEBF0FBECDBFDF91CF910895CF93DF9332
S113039000D01F92CDB7DEB789836A834B838B81EC
S11303A0882371F08A81282F30E081E090E002C038
S11303B0880F991F2A95E2F7982F8981892B0EC0FF
S11303C08A81282F30E081E090E002C0880F991FD5
S11303D02A95E2F7982F9095898189230F900F90A1
S11303E00F90DF91CF910895CF93DF9300D0CDB7D5
S11303F0DEB789836A838A81282F30E081E090E028
S113040002C0880F991F2A95E2F7982F89818923C2
S11304100F900F90DF91CF9108950F931F93CF9377
S1130420DF93CDB7DEB70BE210E040E064E08FEF7E
S1130430ADDFF8018083000089E290E0FC01808157
S1130440809560E0D1DF882311F081E3C1C089E2A7
S113045090E0FC018081809561E0C6DF882311F083
S113046084E3B6C089E290E0FC018081809562E07B
S1130470BBDF882311F087E3ABC089E290E0FC0185
S11304808081809563E0B0DF882311F08AE2A0C008
S11304900BE210E040E065E08FEF78DFF801808345
S11304A0000089E290E0FC018081809560E09CDF9F
S11304B0882311F082E38CC089E290E0FC01808102
S11304C0809561E091DF882311F085E381C089E2A2
S11304D090E0FC018081809562E086DF882311F042
S11304E088E376C089E290E0FC018081809563E036
S11304F07BDF882311F080E36BC00BE210E040E067
S113050066E08FEF43DFF8018083000089E290E02A
S1130510FC018081809560E067DF882311F083E32C
S113052057C089E290E0FC018081809561E05CDF46
S1130530882311F086E34CC089E290E0FC018081BD
S1130540809562E051DF882311F089E341C089E29C
S113055090E0FC018081809563E046DF882311F000
S113056083E236C00BE210E040E067E08FEF0EDF7D
S1130570F8018083000089E290E0FC01808180958D
S113058060E032DF882311F081E422C089E290E048
S1130590FC018081809561E027DF882311F082E4EB
S11305A017C089E290E0FC018081809562E01CDF45
S11305B0882311F083E40CC089E290E0FC0180817F
S11305C0809563E011DF882311F084E401C080E0AA
S11305D0DF91CF911F910F910895CF93DF9300D0B6
S11305E000D000D0CDB7DEB79E838D831A821982E6
S11305F013C01C821B8206C000008B819C81019663
S11306009C838B838B819C8187309340ACF389815D
S11306109A8101969A83898329813A818D819E8169
S11306202817390734F3000026960FB6F894DEBF76
S11306300FBECDBFDF91CF910895CF93DF931F926B
S1130640CDB7DEB7898388E290E028E230E0F90193
S113065020812F7BFC01208382E290E02981FC0130
S1130660208388E290E028E230E0F90120812068CC
S1130670FC012083000088E290E028E230E0F901E8
S113068020812F77FC01208382E090E0A6DF000028
S11306900F90DF91CF910895CF93DF93CDB7DEB75D
S11306A081E0CBDF0000DF91CF910895CF93DF93FA
S11306B0CDB7DEB784E690E090DF88E3BEDF86E066
S11306C0BCDF8FE0BADF81E0B8DF8AE090E085DF4D
S11306D00000DF91CF910895CF93DF931F92CDB7A0
S11306E0DEB7898388E290E028E230E0F9012081D6
S11306F02064FC01208382E290E02981FC012083B4
S113070088E290E028E230E0F90120812068FC01D1
S11307102083000088E290E028E230E0F9012081A3
S11307202F77FC01208381E090E057DF00000F90D9
S1130730DF91CF910895CF93DF931F92CDB7DEB7AA
S113074089838981813120F48981815876DF03C0CE
S11307508981815572DF00000F90DF91CF91089558
S1130760CF93DF9300D000D0CDB7DEB78A837C83EC
S11307706B8392DF8A8189830FC0898191E0980F0E
S11307809983D9DF8B819C819C012F5F3F4F3C83F0
S11307902B83FC018081A0DF8B819C81FC01808103
S11307A0882359F700000F900F900F900F90DF915E
S11307B0CF910895CF93DF93CDB7DEB784E290E075
S11307C02FEBFC01208385E290E020E4FC012083F0
S11307D08CE490E02CE430E0F90120812165FC01F7
S11307E020838FE590E020E8FC0120830000DF9166
S11307F0CF910895CF93DF931F92CDB7DEB789834E
S11308008EE490E02981FC01208385E290E0FC01E4
S1130810808140E064E0BADD00008DE490E0FC01FA
S113082080818823D4F785E290E0FC01808141E057
S113083064E0ACDD00000F90DF91CF910895CF9379
S1130840DF93CDB7DEB7CB55D1090FB6F894DEBF31
S11308500FBECDBF9E01265A3F4FF901918380837D
S1130860DCDD80932B011982CE01865A9F4FFC0157
S113087080819181009719F0029771F020C08091D6
S11308802B01882319F1CE01865A9F4F21E030E0D5
S1130890FC01318320831AC08981882339F4CE0175
S11308A0865A9F4FFC011182108211C0CE01865AD4
S11308B09F4F22E030E0FC013183208308C0CE0149
S11308C0865A9F4FFC011182108201C00000CE01A4
S11308D0865A9F4FFC01808191818130910541F0BE
S11308E08230910509F4D5C0892B09F4D4C0CAC05B
S11308F080912B01882F90E0092E000CAA0BBB0BD2
S113090040E050E024E430E0841B950B28173907BD
S113091008F445C08A5B9F4FFC01D5C2BDDE81E06F
S1130920809305013DC0B8DE82E08093050138C0A4
S1130930B3DE83E08093050133C0AEDE84E08093B0
S113094005012EC0A9DE85E08093050129C0A4DE3F
S113095086E08093050124C09FDE81E08093060138
S11309601FC09ADE82E0809306011AC095DE83E000
S11309708093060115C090DE81E08093040110C0CD
S11309808BDE82E0809304010BC086DE83E08093DB
S1130990040106C081DE84E08093040101C00000EC
S11309A08EE091E0909308018093070185E191E046
S11309B090930A01809309018CE191E09B838A83DF
S11309C080910401882F90E09E012C5F3F4F4AE004
S11309D050E0B90193D280910501882F90E09E01E7
S11309E02A5F3F4F4AE050E0B90188D28091060166
S11309F0882F90E09E01285F3F4F4AE050E0B90104
S1130A007DD22091070130910801CE010A96B901E7
S1130A106ED29E012C5F3F4FCE010A96B9015CD283
S1130A202091090130910A01CE010A96B90154D2EC
S1130A309E012A5F3F4FCE010A96B9014DD22A8109
S1130A403B81CE010A96B90147D29E01285F3F4FF0
S1130A50CE010A96B90140D2CE010A96BC0181E0CA
S1130A607FDE809104018295807F80930B019091B9
S1130A700B0180910501892B80930B0180910B015F
S1130A80B9DE0AC0CE01865A9F4FFC011182108242
S1130A9003C0000001C00000CE01865A9F4FFC0134
S1130AA080819181C55ADF4F0FB6F894DEBF0FBE27
S1130AB0CDBFDF91CF9108950F931F93CF93DF9311
S1130AC0CDB7DEB7C058D1090FB6F894DEBF0FBE5C
S1130AD0CDBF85E590E020E8FC01208385E590E02A
S1130AE020E8FC0120838AE290E020EFFC012083CF
S1130AF088E290E02FE0FC01208381E290E02FEF78
S1130B00FC01208382E290E0FC01108287E290E005
S1130B102FEFFC01208388E290E0FC01108286E93B
S1130B2090E0A0E0B0E08B839C83AD83BE8386E934
S1130B3090E0A0E0B0E08F839887A987BA8786E920
S1130B4090E0A0E0B0E08B879C87AD87BE8781E012
S1130B5090E0A0E0B0E08F87988BA98BBA8B2B81B3
S1130B603C814D815E818B819C81AD81BE81BC01C4
S1130B70CD01C0DBDC01CB018F87988BA98BBA8BAD
S1130B808F859889A989BA898B8B9C8BAD8BBE8BF9
S1130B908B819C81AD81BE812B893C894D895E8985
S1130BA0BC01CD016ED1DA01C9018F8B988FA98F59
S1130BB0BA8F8F819885A985BA852B893C894D89FF
S1130BC05E89BC01CD015DD1DA01C9018B8F9C8F97
S1130BD0AD8FBE8F8B859C85AD85BE852B893C8969
S1130BE04D895E89BC01CD014CD1DA01C9018F8FD9
S1130BF098A3A9A3BAA38CE291E09AA789A781E05C
S1130C0090E09CA38BA310922C018F89988DA98DC1
S1130C10BA8D80932D0190932E01A0932F01B09350
S1130C2030018F89988DA98DBA8D8093310190936D
S1130C303201A0933301B09334018FE194E0909397
S1130C403601809335018B899C89AD89BE89BC01AD
S1130C50CD017FDAACDA2ADD1FDDACDD83E291E081
S1130C609EA38DA38EE091E09093080180930701E9
S1130C7085E191E090930A01809309018CE191E070
S1130C8098A78FA380910401882F90E09E01255896
S1130C903F4F4AE050E0B90131D180910501882FDE
S1130CA090E09E0123583F4F4AE050E0B90126D11D
S1130CB080910601882F90E09E0121583F4F4AE021
S1130CC050E0B9011BD12091070130910801CE01F8
S1130CD08B96B9010CD19E0125583F4FCE018B96BE
S1130CE0B901FAD02091090130910A01CE018B9605
S1130CF0B901F2D09E0123583F4FCE018B96B90122
S1130D00EBD02FA138A5CE018B96B901E5D09E0179
S1130D1021583F4FCE018B96B901DED0CE018B9680
S1130D20BC0181E01DDD1A8219829BC089819A81F0
S1130D30880F991F9E012F5F3F4F820F931F889644
S1130D40FC0180819181FC01258136814781508598
S1130D5089819A81880F991FBE016F5F7F4F860F2B
S1130D60971F8896FC0180819181FC018181928189
S1130D70A381B481281739074A075B0709F045C0E6
S1130D8089819A81880F991F9E012F5F3F4F820F9F
S1130D90931F8896FC010081118189819A81880FB3
S1130DA0991F9E012F5F3F4F820F931F8896FC016E
S1130DB080819181FC012185328589819A81880F06
S1130DC0991FAE014F5F5F4F840F951F8896FC01FA
S1130DD080819181FC018081082E000C990BF9011E
S1130DE00995F801808389819A81880F991F9E0152
S1130DF02F5F3F4F820F931F8896FC018081918162
S1130E00FC01158216821782108689819A81880FC7
S1130E10991F9E012F5F3F4F820F931F8896FC01FD
S1130E202081318189819A81880F991FAE014F5F9A
S1130E305F4F840F951F8896FC0180819181FC018E
S1130E4085819681A781B0850196A11DB11DF90107
S1130E5085839683A783B08789819A8101969A8333
S1130E60898329813A818BA19CA12817390708F429
S1130E705DCF0000809126018823E1F310922601C2
S1130E8052CFA1E21A2EAA1BBB1BFD010DC0AA1F43
S1130E90BB1FEE1FFF1FA217B307E407F50720F0DF
S1130EA0A21BB30BE40BF50B661F771F881F991F5A
S1130EB01A9469F760957095809590959B01AC01A3
S1130EC0BD01CF010895EE0FFF1F0024001C0BBECF
S1130ED00790F691E02D0994FB01DC010D900020B0
S1130EE0E9F7119701900D920020E1F70895FB01B5
S1130EF0DC0101900D920020E1F70895453251057F
S1130F0018F4423008F004C0FB011082CB010895AC
S1130F10BB274A3031F4992322F4BDE290958195A0
S1130F209F4F01C0BB27FB015527AA27880F991F94
S1130F30AA1FA41710F0A41B83955051B9F7A05D04
S1130F40AA3308F0A95DA193009779F7B111B19381
S1130F501192CB0100C0DC01FC01672F7191772352
S1130F60E1F7329704C07C916D9370836291AE1760
S10D0F70BF07C8F30895F894FFCFFB
S1130F7A010000000101010C010C01113000507440
S1130F8A726E3A2000205370643A20002020754380
S1090F9A3A2000310000C2
S9030000FC
