S00E00004D61737465722E73726563AA
S113000045C0000061C000005FC000005DC000008A
S11300105BC0000059C0000057C0000055C000007C
S113002053C0000051C000004FC000004DC000008C
S11300304BC00000E6C1000047C0000045C00000FE
S113004043C0000041C000003FC000003DC00000AC
S11300503BC0000039C0000037C0000035C00000BC
S113006033C0000031C000002FC000002DC00000CC
S11300702BC0000029C0000027C0000025C00000DC
S113008023C0000021C000001FC0000011241FBEB7
S1130090CFEFD0E4DEBFCDBF11E0A0E0B1E0E6E6F3
S11300A0F6E100E00BBF02C007900D92A631B10744
S11300B0D9F721E0A6E1B1E001C01D92A534B20751
S11300C0E1F739D30C94310B9BCFCF93DF931F927D
S11300D0CDB7DEB7898389818130E1F081EC90E08E
S11300E021EC30E0F90120812861FC01208382ECBD
S11300F090E022EC30E0F90120812660FC012083AD
S113010084EC90E023E3FC01208385EC90E0FC0187
S113011010821BC089EC90E029EC30E0F9012081C9
S11301202861FC0120838AEC90E02AEC30E0F9019C
S113013020812660FC0120838CEC90E023E3FC0109
S113014020838DEC90E0FC01108200000F90DF9181
S1130150CF910895CF93DF931F92CDB7DEB78983F4
S11301608981813031F080EC90E0FC0180818072E3
S113017005C088EC90E0FC01808180720F90DF91D3
S1130180CF910895CF93DF931F92CDB7DEB78983C4
S11301908981813031F080EC90E0FC0180818078AD
S11301A005C088EC90E0FC01808180780F90DF919D
S11301B0CF910895CF93DF931F92CDB7DEB7898394
S11301C089818130A1F006C086EC90E0FC01808139
S11301D080931D0180EC90E0FC0180818823A4F3CE
S11301E00CC08EEC90E0FC01808180931D0188ECB2
S11301F090E0FC0180818823A4F300000F90DF913C
S1130200CF910895CF93DF931F92CDB7DEB7898343
S11302108981813061F0000080EC90E0FC018081F4
S11302208823D4F786EC90E0FC0180810BC00000A9
S113023088EC90E0FC0180818823D4F78EEC90E078
S1130240FC0180810F90DF91CF910895CF93DF93CC
S1130250CDB7DEB727970FB6F894DEBF0FBECDBF7C
S11302609E838D836F838F81813049F11A82198235
S11302701CC0000080EC90E0FC018081882F90E09D
S113028080729927892BB1F386EC90E029813A8119
S11302904D815E81240F351FF9012081FC012083EB
S11302A089819A8101969A8389838D819E81F5D66D
S11302B09C0189819A8182179307D8F228C01C82F5
S11302C01B821CC0000088EC90E0FC018081882F18
S11302D090E080729927892BB1F38EEC90E02B810A
S11302E03C814D815E81240F351FF9012081FC0181
S11302F020838B819C8101969C838B838D819E813D
S1130300CCD69C018B819C8182179307D8F2000084
S113031027960FB6F894DEBF0FBECDBFDF91CF9105
S11303200895CF93DF9300D000D0CDB7DEB76983B3
S11303307A838B839C8389819A81AB81BC818093EE
S1130340000190930101A0930201B09303018091F5
S1130350000190910101A0910201B09103018093E9
S1130360170190931801A0931901B0931A0100008A
S11303700F900F900F900F90DF91CF910895CF932E
S1130380DF93CDB7DEB781E890E02BE0FC0120835A
S113039088E890E02DE730E0FC01318320838FE68C
S11303A090E022E0FC01208384E890E0FC011182CB
S11303B010828091000190910101A0910201B091FD
S11303C003018093170190931801A0931901B0932E
S11303D01A018FE590E02FE530E0F90120812068D3
S11303E0FC0120830000DF91CF910895CF93DF9328
S11303F0CDB7DEB781E0809316010000DF91CF9185
S113040008951F920F9200905F000F9211240090A4
S11304105B000F922F933F934F935F936F937F9360
S11304208F939F93AF93BF93EF93FF93CF93DF93F8
S1130430CDB7DEB78091170190911801A0911901F1
S1130440B0911A010197A109B10980931701909302
S11304501801A0931901B0931A018091170190918A
S11304601801A0911901B0911A01892B8A2B8B2BA9
S113047089F4BCDF8091000190910101A0910201F7
S1130480B09103018093170190931801A09319016F
S1130490B0931A010000DF91CF91FF91EF91BF91CA
S11304A0AF919F918F917F916F915F914F913F9108
S11304B02F910F9000925B000F9000925F000F90BD
S11304C01F901895CF93DF93CDB7DEB72C970FB657
S11304D0F894DEBF0FBECDBF6D837E838F83988774
S11304E029873A874B875C878D819E81AF81B88548
S11304F029853A854B855C85BC01CD01ACD5DC01F1
S1130500CB0189839A83AB83BC8389819A81AB8134
S1130510BC81892B8A2B8B2B29F489859A85AB8501
S1130520BC8511C089859A85AB85BC858D839E83E6
S1130530AF83B88789819A81AB81BC8189879A8787
S1130540AB87BC87D1CFBC01CD012C960FB6F894F4
S1130550DEBF0FBECDBFDF91CF910895CF93DF9360
S113056000D0CDB7DEB79A83898389819A8182309E
S1130570910509F18330910519F1892B31F580E05A
S113058001DE882331F080E03DDE8093290180E0A4
S113059011DE80912901813329F481E090E09A836E
S11305A0898316C080912901823391F482E090E01E
S11305B09A8389830DC0109229011A82198209C075
S11305C0109229011A82198204C01A82198201C068
S11305D0000089819A818130910579F082309105FA
S11305E024F4892B09F49BC097C08230910509F447
S11305F086C0039709F495C08FC080E0ABDD8823E3
S113060049F060E084E091E021DE85E290E021E0C1
S1130610FC0120831092290101D284E890E0FC01BE
S113062011821082000080E290E0FC018081882F1A
S113063090E081709927892BB1F381E890E021E063
S1130640FC012083000080E290E0FC018081882F7F
S113065090E081709927892BB1F781E890E0FC0143
S1130660108284E890E0FC018081918190932B01B9
S113067080932A0184E890E0FC0111821082809129
S11306802A0190912B01CC01A0E0B0E0BC01CD0186
S1130690C9D3DC01CB012DEC3CE043E154E4BC01C3
S11306A0CD012CD3DC01CB01BC01CD018FD3DC0106
S11306B0CB0190931C0180931B0180911B019091AD
S11306C01C01292F2F938F938BE091E0892F8F9317
S11306D08BE091E08F938CE291E0892F8F938CE2F1
S11306E091E08F93E3D40F900F900F900F900F90A1
S11306F00F9060E08CE291E0A9DD41DE15C080E05E
S113070029DD882381F060E08EE091E09FDD85E2C1
S113071090E0FC01108207C01A82198205C0000013
S113072003C0000001C0000089819A810F900F90DE
S1130730DF91CF9108950F931F93CF93DF93CDB79C
S1130740DEB7A6970FB6F894DEBF0FBECDBF84E226
S113075090E02FEFFC01208385E290E0FC01108201
S113076081E290E021E230E0F90120812260FC0185
S1130770208381E290E021E230E0F90120812E7FA4
S1130780FC01208386E990E0A0E0B0E08B839C83A9
S1130790AD83BE8386E990E0A0E0B0E08F839887C4
S11307A0A987BA8786E990E0A0E0B0E08B879C87B0
S11307B0AD87BE8781E090E0A0E0B0E08F87988BA2
S11307C0A98BBA8B2B813C814D815E818B819C816D
S11307D0AD81BE81BC01CD0175DEDC01CB018F870B
S11307E0988BA98BBA8B8F859889A989BA898B8BA9
S11307F09C8BAD8BBE8B8B819C81AD81BE812B8903
S11308003C894D895E89BC01CD0125D4DA01C90139
S11308108F8B988FA98FBA8F8F819885A985BA8578
S11308202B893C894D895E89BC01CD0114D4DA0140
S1130830C9018B8F9C8FAD8FBE8F8B859C85AD85B9
S1130840BE852B893C894D895E89BC01CD0103D4C9
S1130850DA01C9018F8F98A3A9A3BAA38EE191E00D
S11308609EA38DA381E090E09CA38BA310921E0114
S11308708F89988DA98DBA8D80931F019093200143
S1130880A0932101B09322018F89988DA98DBA8DEF
S11308908093230190932401A0932501B093260112
S11308A08EEA92E090932801809327018B899C899A
S11308B0AD89BE89BC01CD0134DD61DD80E005DC9C
S11308C01A8219829BC089819A81880F991F9E017F
S11308D02F5F3F4F820F931F8496FC01808191818B
S11308E0FC01258136814781508589819A81880F51
S11308F0991FBE016F5F7F4F860F971F8496FC017F
S113090080819181FC0181819281A381B481281726
S113091039074A075B0709F045C089819A81880F26
S1130920991F9E012F5F3F4F820F931F8496FC01F6
S11309300081118189819A81880F991F9E012F5FFF
S11309403F4F820F931F8496FC0180819181FC01AB
S11309502185328589819A81880F991FAE014F5F65
S11309605F4F840F951F8496FC0180819181FC0167
S11309708081082E000C990BF9010995F8018083F8
S113098089819A81880F991F9E012F5F3F4F820FA3
S1130990931F8496FC0180819181FC01158216824B
S11309A01782108689819A81880F991F9E012F5F73
S11309B03F4F820F931F8496FC01208131818981EE
S11309C09A81880F991FAE014F5F5F4F840F951F67
S11309D08496FC0180819181FC0185819681A781A7
S11309E0B0850196A11DB11DF90185839683A78366
S11309F0B08789819A8101969A83898329813A8172
S1130A008BA19CA12817390708F45DCF00008091C1
S1130A1016018823E1F31092160152CFCF93DF938E
S1130A20CDB7DEB7A0970FB6F894DEBF0FBECDBF2B
S1130A3082E290E022E230E0F90120812260FC01B0
S1130A40208380E090E0A0E2B1E489839A83AB83C1
S1130A50BC832BEA3AEA4AE250E469817A818B81C9
S1130A609C8196D2DC01CB018D839E83AF83B887B2
S1130A7089819A81AB81BC819C01AD01BC01CD010E
S1130A80D5D0DC01CB0189879A87AB87BC8720E06E
S1130A9030E040E85FE36D817E818F8198852AD1C3
S1130AA088231CF481E08D87A7C020E03FEF4FE747
S1130AB057E469857A858B859C8566D218160CF077
S1130AC074C020E030E04AE754E469817A818B8184
S1130AD09C8114D1DC01CB018E879F87A88BB98BB5
S1130AE020E030E04AEF54E46E857F858889998957
S1130AF04FD2DC01CB018A8B9B8BAC8BBD8B20E06E
S1130B0030E040E85FE36A897B898C899D89F2D073
S1130B1088232CF481E090E09F8B8E8B3BC020E0F7
S1130B203FEF4FE757E46A897B898C899D892CD2F2
S1130B3018163CF520E030E040E251E46E857F85F4
S1130B408889998925D2DC01CB01BC01CD013ED134
S1130B50DC01CB019F8B8E8B0FC088EC90E0998FCA
S1130B60888F888D998D0197F1F7998F888F8E8959
S1130B709F8901979F8B8E8B8E899F89892B69F71B
S1130B803BC06A897B898C899D8920D1DC01CB019A
S1130B909F8B8E8B8E899F899B8F8A8F8A8D9B8D4D
S1130BA00197F1F79B8F8A8F27C020E030E04FE751
S1130BB053E46D817E818F819885E6D11816A4F463
S1130BC069857A858B859C8501D1DC01CB019D8F5C
S1130BD08C8F8C8D9D8D9F8F8E8F8E8D9F8D019789
S1130BE0F1F79F8F8E8F0EC06D817E818F819885E6
S1130BF0EDD0DC01CB018D878D8588A388A18A95F2
S1130C00F1F788A382E290E022E230E0F90120814A
S1130C102C7FFC0120830000A0960FB6F894DEBF61
S1130C200FBECDBFDF91CF9108955058BB27AA279F
S1130C300ED070C161D130F066D120F031F49F3F05
S1130C4011F41EF456C10EF4E095E7FB4CC1E92FF4
S1130C5072D180F3BA17620773078407950718F0F7
S1130C6071F49EF58AC10EF4E0950B2EBA2FA02DD7
S1130C700B01B90190010C01CA01A0011124FF2745
S1130C80591B99F0593F50F4503E68F11A16F04040
S1130C90A22F232F342F4427585FF3CF469537953F
S1130CA02795A795F0405395C9F77EF41F16BA0B04
S1130CB0620B730B840BBAF09150A1F0FF0FBB1FB2
S1130CC0661F771F881FC2F70EC0BA0F621F731FFB
S1130CD0841F48F4879577956795B795F7959E3F58
S1130CE008F0B3CF9395880F08F09927EE0F9795E6
S1130CF087950895D4D008F481E008950CD00AC1F2
S1130D0002D140F0F9D030F021F45F3F19F0EBC08C
S1130D10511134C1EEC00FD198F39923C9F355236F
S1130D20B1F3951B550BBB27AA27621773078407DA
S1130D3038F09F5F5F4F220F331F441FAA1FA9F390
S1130D4033D00E2E3AF0E0E830D091505040E69582
S1130D50001CCAF729D0FE2F27D0660F771F881FE3
S1130D60BB1F261737074807AB07B0E809F0BB0BD2
S1130D70802DBF01FF2793585F4F2AF09E3F5105F6
S1130D8068F0B1C0FBC05F3FECF3983EDCF386959E
S1130D9077956795B795F7959F5FC9F7880F911D6C
S1130DA09695879597F90895E1E0660F771F881F58
S1130DB0BB1F621773078407BA0720F0621B730B0B
S1130DC0840BBA0BEE1F88F7E0950895BCD088F029
S1130DD09F5790F0B92F9927B751A0F0D1F0660F23
S1130DE0771F881F991F1AF0BA95C9F712C0B1303E
S1130DF081F0C3D0B1E00895C0C0672F782F882751
S1130E00B85F39F0B93FCCF3869577956795B3957C
S1130E10D9F73EF490958095709561957F4F8F4FEB
S1130E209F4F0895E89409C097FB3EF490958095F0
S1130E30709561957F4F8F4F9F4F9923A9F0F92F9C
S1130E4096E9BB279395F695879577956795B7951A
S1130E50F111F8CFFAF4BB0F11F460FF1BC06F5F00
S1130E607F4F8F4F9F4F16C0882311F096E911C012
S1130E70772321F09EE8872F762F05C0662371F033
S1130E8096E8862F70E060E02AF09A95660F771F47
S1130E90881FDAF7880F9695879597F90895990F23
S1130EA00008550FAA0BE0E8FEEF16161706E80730
S1130EB0F907C0F012161306E407F50798F0621B51
S1130EC0730B840B950B39F40A2661F0232B242B26
S1130ED0252B21F408950A2609F4A140A6958FEF45
S1130EE0811D811D089597F99F6780E870E060E097
S1130EF008959FEF80EC089500240A9416161706AF
S1130F0018060906089500240A94121613061406F6
S1130F1005060895092E0394000C11F4882352F059
S1130F20BB0F40F4BF2B11F460FF04C06F5F7F4F11
S1130F308F4F9F4F089557FD9058440F551F59F0F8
S1130F405F3F71F04795880F97FB991F61F09F3FB2
S1130F5079F087950895121613061406551FF2CFDB
S1130F604695F1DF08C0161617061806991FF1CF2B
S1130F7086957105610508940895E894BB27662752
S1130F807727CB0197F908958ADF08F48FEF089546
S1130F900BD0C0CFB1DF28F0B6DF18F0952309F0ED
S1130FA0A2CFA7CF1124EACFC6DFA0F3959FD1F338
S1130FB0950F50E0551F629FF001729FBB27F00D03
S1130FC0B11D639FAA27F00DB11DAA1F649F662758
S1130FD0B00DA11D661F829F2227B00DA11D621FA7
S1130FE0739FB00DA11D621F839FA00D611D221F61
S1130FF0749F3327A00D611D231F849F600D211D45
S1131000822F762F6A2F11249F5750408AF0E1F0E7
S113101088234AF0EE0FFF1FBB1F661F771F881F30
S113102091505040A9F79E3F510570F05CCFA6CF78
S11310305F3FECF3983EDCF3869577956795B7951B
S1131040F795E7959F5FC1F7FE2B880F911D969545
S1131050879597F90895A1E21A2EAA1BBB1BFD01DF
S11310600DC0AA1FBB1FEE1FFF1FA217B307E40783
S1131070F50720F0A21BB30BE40BF50B661F771FDB
S1131080881F991F1A9469F76095709580959095BB
S11310909B01AC01BD01CF010895FC01019000202A
S11310A0E9F7809590958E0F9F1F08950F931F93D6
S11310B0CF93DF93CDB7DEB72E970FB6F894DEBF8C
S11310C00FBECDBF0D891E8986E08C831A830983E8
S11310D08FEF9FE79E838D83AE01475E5F4F6F89DD
S11310E0788DCE01019610D0EF81F885E00FF11FC5
S11310F010822E960FB6F894DEBF0FBECDBFDF91DF
S1131100CF911F910F9108952F923F924F925F922A
S11311106F927F928F929F92AF92BF92CF92DF9203
S1131120EF92FF920F931F93CF93DF93CDB7DEB768
S11311302B970FB6F894DEBF0FBECDBF6C017B01B9
S11311408A01FC0117821682838181FFBFC1CE010F
S113115001963C01F6019381F70193FD859193FF7C
S113116081917F01882309F4ADC1853239F493FD5F
S1131170859193FF81917F01853221F4B60190E03E
S1131180D6D1E8CF912C212C312CFFE1F315D8F0E6
S11311908B3279F038F4803279F08332A1F4232D44
S11311A020611DC08D3261F0803369F4232D2160EC
S11311B016C0832D8260382EE32DE4603E2E2AC0B3
S11311C0F32DF8601DC037FC2DC020ED280F2A3008
S11311D040F08E32B9F436FC75C1232D2064322ED2
S11311E019C036FE06C08AE0989E200D1124922E66
S11311F011C0EAE02E9E200D1124222EF32DF06260
S11312003F2E08C08C3621F4832D8068382E02C00E
S1131210883641F4F70193FD859193FF81917F0115
S11312208111B3CF982F9F7D9554933028F40C5F90
S11312301F4F9FE399830DC0833631F0833771F0DC
S1131240833509F055C020C0F801808189830E5F81
S11312501F4F88248394912C530112C02801F2E07B
S11312604F0E511CF801A080B18036FE03C0692DD9
S113127070E002C06FEF7FEFC5014ED14C018201D7
S1131280F32DFF773F2E15C0280122E0420E511C9A
S1131290F801A080B18036FE03C0692D70E002C061
S11312A06FEF7FEFC5012DD14C01F32DF0683F2E78
S11312B0820133FC19C0822D90E088169906A0F4AF
S11312C0B60180E290E033D12A94F5CFF50137FCE2
S11312D0859137FE81915F01B60190E028D12110FC
S11312E02A9421E0821A91088114910479F7E1C0CB
S11312F0843611F0893639F5F80137FE07C060816C
S11313007181828193810C5F1F4F08C0608171815C
S1131310072E000C880B990B0E5F1F4FF32DFF76E1
S11313203F2E97FF09C090958095709561957F4FEA
S11313308F4F9F4FF0683F2E2AE030E0A30133D156
S1131340882E861844C0853731F4232D2F7EB22E83
S11313502AE030E025C0932D997FB92E8F36C1F055
S113136018F4883579F0AEC0803719F0883721F049
S1131370A9C0E92FE061BE2EB4FE0DC0FB2DF460C0
S1131380BF2E09C034FE0AC0292F2660B22E06C023
S113139028E030E005C020E130E002C020E132E086
S11313A0F801B7FE07C060817181828193810C5F6F
S11313B01F4F06C06081718180E090E00E5F1F4F77
S11313C0A301F1D0882E8618FB2DFF773F2E36FE21
S11313D00DC0232D2E7FA22E891458F434FE0BC089
S11313E032FC09C0832D8E7EA82E05C0B82CA32CF8
S11313F003C0B82C01C0B92CA4FE0FC0FE01E80D37
S1131400F11D8081803321F49A2D997EA92E09C083
S1131410A2FE06C0B394B39404C08A2D867809F062
S1131420B394A3FC10C0A0FE06C0B21480F4280C30
S1131430922C9B180DC0B21458F4B60180E290E0CF
S113144076D0B394F8CFB21418F42B1802C0982CA9
S1131450212CA4FE0FC0B60180E390E068D0A2FE68
S113146016C0A1FC03C088E790E002C088E590E0C4
S1131470B6010CC08A2D867851F0A1FE02C08BE221
S113148001C080E2A7FC8DE2B60190E050D089143F
S113149030F4B60180E390E04AD09A94F8CF8A946D
S11314A0F301E80DF11D8081B60190E040D0811078
S11314B0F6CF222009F44ECEB60180E290E037D078
S11314C02A94F7CFF6018681978102C08FEF9FEFB0
S11314D02B960FB6F894DEBF0FBECDBFDF91CF9130
S11314E01F910F91FF90EF90DF90CF90BF90AF903E
S11314F09F908F907F906F905F904F903F902F9030
S11315000895FC010590615070400110D8F7809552
S113151090958E0F9F1F0895FC01615070400190BB
S11315200110D8F7809590958E0F9F1F08950F9303
S11315301F93CF93DF93FB01238121FD03C08FEF22
S11315409FEF2CC022FF16C046815781248135812C
S11315504217530744F4A081B1819D012F5F3F4F8F
S1131560318320838C93268137812F5F3F4F3783CC
S1131570268314C08B01EC01FB010084F185E02D6E
S11315800995892BE1F6D80116968D919C911797B0
S1131590019617969C938E931697CE01DF91CF9167
S11315A01F910F910895FA01AA27283051F1203193
S11315B081F1E8946F936E7F6E5F7F4F8F4F9F4FE3
S11315C0AF4FB1E03ED0B4E03CD0670F781F891F25
S11315D09A1FA11D680F791F8A1F911DA11D6A0FF3
S11315E0711D811D911DA11D20D009F468943F91A6
S11315F02AE0269F11243019305D3193DEF6CF01A5
S11316000895462F4770405D4193B3E00FD0C9F76A
S1131610F6CF462F4F70405D4A3318F0495D31FDD7
S11316204052419302D0A9F7EACFB4E0A69597952A
S1131630879577956795BA95C9F700976105710500
S113164008959B01AC010A2E06945795479537954A
S11316502795BA95C9F7620F731F841F951FA01DA4
S10916600895F894FFCF89
S1131666010000004C45445F4F4E002564004C4584
S1091676445F4F464600EC
S9030000FC
