:1000000045C0000061C000005FC000005DC000008E
:100010005BC0000059C0000057C0000055C0000080
:1000200053C0000051C000004FC000004DC0000090
:100030004BC000007DC2000047C0000045C000006A
:1000400043C0000041C000003FC000003DC00000B0
:100050003BC0000039C0000037C0000035C00000C0
:1000600033C0000031C000002FC000002DC00000D0
:100070002BC0000029C0000027C0000025C00000E0
:1000800023C0000021C000001FC0000011241FBEBB
:10009000CFEFD0E4DEBFCDBF11E0A0E0B1E0E8E5F6
:1000A000F5E100E00BBF02C007900D92AC36B1073E
:1000B000D9F721E0ACE6B1E001C01D92AD39B2073D
:1000C000E1F786D40C94AA0A9BCFCF93DF931F92BB
:1000D000CDB7DEB7898389818130E1F081EC90E092
:1000E00021EC30E0F90120812861FC01208382ECC1
:1000F00090E022EC30E0F90120812660FC012083B1
:1001000084EC90E023E3FC01208385EC90E0FC018B
:1001100010821BC089EC90E029EC30E0F9012081CD
:100120002861FC0120838AEC90E02AEC30E0F901A0
:1001300020812660FC0120838CEC90E023E3FC010D
:1001400020838DEC90E0FC01108200000F90DF9185
:10015000CF910895CF93DF931F92CDB7DEB78983F8
:100160008981813031F080EC90E0FC0180818072E7
:1001700005C088EC90E0FC01808180720F90DF91D7
:10018000CF910895CF93DF931F92CDB7DEB78983C8
:100190008981813031F080EC90E0FC0180818078B1
:1001A00005C088EC90E0FC01808180780F90DF91A1
:1001B000CF910895CF93DF931F92CDB7DEB7898398
:1001C00089818130A1F006C086EC90E0FC0180813D
:1001D0008093750180EC90E0FC0180818823A4F37A
:1001E0000CC08EEC90E0FC0180818093750188EC5E
:1001F00090E0FC0180818823A4F300000F90DF9140
:10020000CF910895CF93DF9300D0CDB7DEB7898328
:100210006A838A81813089F0000080EC90E0FC01E3
:100220008081882F90E080729927892BB1F386EC2A
:1002300090E02981FC01208310C0000088EC90E050
:10024000FC018081882F90E080729927892BB1F37F
:100250008EEC90E02981FC01208300000F900F902C
:10026000DF91CF910895CF93DF931F92CDB7DEB783
:1002700089838981813061F0000080EC90E0FC018D
:1002800080818823D4F786EC90E0FC0180810BC04C
:10029000000088EC90E0FC0180818823D4F78EEC8C
:1002A00090E0FC0180810F90DF91CF9108950F9332
:1002B0001F93CF93DF9300D000D01F92CDB7DEB74E
:1002C0009C838B836D831A82198289819A812B8109
:1002D0003C818901080F191F80E0C5DFF801808388
:1002E00089819A812B813C81820F931FFC0180813F
:1002F0008A3049F489819A812B813C81820F931F36
:10030000FC01108206C089819A8101969A838983B3
:10031000DCCF89819A812B813C81820F931FFC0164
:10032000108200000F900F900F900F900F90DF91B0
:10033000CF911F910F910895CF93DF93CDB7DEB783
:1003400028970FB6F894DEBF0FBECDBF9E838D8376
:100350006F8348878885813009F447C01A821982E3
:1003600028C0000080EC90E0FC018081882F90E0A4
:1003700080729927892BB1F389819A812D813E81E1
:10038000820F931FFC018081882F90E0892BE1F080
:1003900086EC90E029813A814D815E81240F351FE2
:1003A000F9012081FC01208389819A8101969A8339
:1003B00089838D819E810E94A10A9C0189819A81F5
:1003C0008217930770F201C000008F81813019F409
:1003D00060E08AE017DF8F81823081F560E08DE098
:1003E00011DF60E08AE00EDF29C01C821B821CC086
:1003F000000088EC90E0FC018081882F90E0807202
:100400009927892BB1F38EEC90E02B813C814D81B3
:100410005E81240F351FF9012081FC0120838B812F
:100420009C8101969C838B838D819E810E94A10A71
:100430009C018B819C8182179307D0F20000289643
:100440000FB6F894DEBF0FBECDBFDF91CF910895F8
:10045000CF93DF9300D000D0CDB7DEB769837A8326
:100460008B839C8389819A81AB81BC8180930001BD
:1004700090930101A0930201B093030180910001C8
:1004800090910101A0910201B091030180936D014F
:1004900090936E01A0936F01B093700100000F90D4
:1004A0000F900F900F90DF91CF910895CF93DF932E
:1004B000CDB7DEB781E890E02BE0FC01208388E82F
:1004C00090E02DE730E0FC01318320838FE690E05F
:1004D00022E0FC01208384E890E0FC01118210827C
:1004E0008091000190910101A0910201B09103015E
:1004F00080936D0190936E01A0936F01B093700192
:100500008FE590E02FE530E0F90120812068FC01C3
:1005100020830000DF91CF910895CF93DF93CDB773
:10052000DEB781E080936C010000DF91CF910895E8
:100530001F920F9200905F000F92112400905B00B9
:100540000F922F933F934F935F936F937F938F936C
:100550009F93AF93BF93EF93FF93CF93DF93CDB769
:10056000DEB780916D0190916E01A0916F01B09105
:1005700070010197A109B10980936D0190936E01FB
:10058000A0936F01B093700180916D0190916E0105
:10059000A0916F01B0917001892B8A2B8B2B89F46C
:1005A000BCDF8091000190910101A0910201B09106
:1005B000030180936D0190936E01A0936F01B0933E
:1005C00070010000DF91CF91FF91EF91BF91AF914A
:1005D0009F918F917F916F915F914F913F912F915B
:1005E0000F9000925B000F9000925F000F901F90A1
:1005F0001895CF93DF93CDB7DEB72C970FB6F8944D
:10060000DEBF0FBECDBF6D837E838F839887298722
:100610003A874B875C878D819E81AF81B88529851C
:100620003A854B855C85BC01CD0157D7DC01CB01F8
:1006300089839A83AB83BC8389819A81AB81BC8196
:10064000892B8A2B8B2B29F489859A85AB85BC85D0
:1006500011C089859A85AB85BC858D839E83AF83C8
:10066000B88789819A81AB81BC8189879A87AB875A
:10067000BC87D1CFBC01CD012C960FB6F894DEBF5C
:100680000FBECDBFDF91CF910895CF93DF93CDB74C
:10069000DEB7C056D1090FB6F894DEBF0FBECDBF8E
:1006A0009E01215A3F4FF90191838083CE01815AE7
:1006B0009F4FFC01808191818230910551F18330FF
:1006C000910509F45EC0892B09F066C080E05ADD0F
:1006D000882331F080E0C7DD8093810180E06ADD0E
:1006E00080918101813349F4CE01815A9F4F21E0ED
:1006F00030E0FC013183208356C080918101823338
:1007000009F051C0CE01815A9F4FFC011182108225
:100710004AC080E037DD882331F080E0A4DD80939B
:10072000810180E047DD80918101823339F4CE017F
:10073000815A9F4FFC011182108236C08091810145
:10074000833349F4CE01815A9F4F21E030E0FC0110
:100750003183208329C080918101843349F4CE0103
:10076000815A9F4F23E030E0FC01318320831CC07D
:10077000CE01815A9F4F22E030E0FC01318320837B
:1007800013C010928101CE01815A9F4F22E030E0C8
:10079000FC013183208308C0CE01815A9F4FFC01A8
:1007A0001182108201C00000CE01815A9F4FFC01CE
:1007B000808191818130910571F08230910524F41E
:1007C000892B09F4F2C0EAC08230910531F1039718
:1007D00009F4D7C0E3C080E0BDDC882351F040E0DD
:1007E00061E082E491E0A8DD85E290E021E0FC0197
:1007F00020831092810166D38091710190917201E2
:100800009093740180937301CE01815A9F4F22E02F
:1008100030E0FC0131832083CBC01092810152D3A0
:100820002091730130917401809104019091050130
:10083000A901481B590BCA019C018091710190913B
:1008400072018217930798F020917301309174011F
:100850008091040190910501820F931F9C0180916A
:100860007101909172012817390708F0A0C040E08B
:1008700061E08BE491E060DD80E090E0AAEFB3E41A
:1008800089839A83AB83BC8320E030E04AE753E45A
:1008900069817A818B819C81BDD5DC01CB018D83FF
:1008A0009E83AF83B88720E030E040E85FE36D814E
:1008B0007E818F81988560D488232CF481E090E03C
:1008C0009A8789873BC020E03FEF4FE757E46D816F
:1008D0007E818F8198859AD518163CF520E030E00E
:1008E00040E251E469817A818B819C8193D5DC015E
:1008F000CB01BC01CD01ACD4DC01CB019A87898747
:100900000FC089E190E09C878B878B859C85019740
:10091000F1F79C878B8789859A8501979A878987C4
:1009200089859A85892B69F713C06D817E818F81B6
:1009300098858ED4DC01CB019A87898789859A8531
:100940009E878D878D859E850197F1F79E878D8780
:100950002091240130912501CE010F96B901EAD5ED
:10096000CE010F9666E071E0DAD5CE010F9640E039
:1009700061E0E2DCCE01815A9F4FFC0111821082BE
:1009800016C040E061E081E591E0D6DC60E086E001
:1009900091E08DDC86E091E0EAD20AC0CE01815A76
:1009A0009F4FFC011182108203C0000001C00000B3
:1009B000CE01815A9F4FFC0180819181C05ADF4F47
:1009C0000FB6F894DEBF0FBECDBFDF91CF91089573
:1009D0000F931F93CF93DF93CDB7DEB7A6970FB6D4
:1009E000F894DEBF0FBECDBF84E290E02FEFFC0194
:1009F000208385E290E0FC01108281E290E021E218
:100A000030E0F90120812260FC01208381E290E046
:100A100021E230E0F90120812E7FFC01208382E376
:100A200090E0A0E0B0E08B839C83AD83BE8386E939
:100A300090E0A0E0B0E08F839887A987BA8786E925
:100A400090E0A0E0B0E08B879C87AD87BE8781E017
:100A500090E0A0E0B0E08F87988BA98BBA8B2B81B8
:100A60003C814D815E818B819C81AD81BE81BC01C9
:100A7000CD01BFDDDC01CB018F87988BA98BBA8BB1
:100A80008F859889A989BA898B8B9C8BAD8BBE8BFE
:100A90008B819C81AD81BE812B893C894D895E898A
:100AA000BC01CD011AD5DA01C9018F8B988FA98FAE
:100AB000BA8F8F819885A985BA852B893C894D8904
:100AC0005E89BC01CD0109D5DA01C9018B8F9C8FEC
:100AD000AD8FBE8F8B859C85AD85BE852B893C896E
:100AE0004D895E89BC01CD01F8D4DA01C9018F8F2F
:100AF00098A3A9A3BAA386E791E09EA38DA381E062
:100B000090E09CA38BA3109276018F89988DA98D7C
:100B1000BA8D8093770190937801A0937901B09377
:100B20007A018F89988DA98DBA8D80937B019093DE
:100B30007C01A0937D01B0937E0185E493E09093C6
:100B4000800180937F018B899C89AD89BE89BC011E
:100B5000CD017EDCABDC80E0B8DA1A8219829BC062
:100B600089819A81880F991F9E012F5F3F4F820FC5
:100B7000931F8496FC0180819181FC01258136813F
:100B80004781508589819A81880F991FBE016F5FC7
:100B90007F4F860F971F8496FC0180819181FC0115
:100BA00081819281A381B481281739074A075B07A5
:100BB00009F045C089819A81880F991F9E012F5F96
:100BC0003F4F820F931F8496FC0100811181898120
:100BD0009A81880F991F9E012F5F3F4F820F931FAD
:100BE0008496FC0180819181FC0121853285898177
:100BF0009A81880F991FAE014F5F5F4F840F951F39
:100C00008496FC0180819181FC018081082E000C7A
:100C1000990BF9010995F801808389819A81880FE0
:100C2000991F9E012F5F3F4F820F931F8496FC01F7
:100C300080819181FC01158216821782108689813C
:100C40009A81880F991F9E012F5F3F4F820F931F3C
:100C50008496FC012081318189819A81880F991FB6
:100C6000AE014F5F5F4F840F951F8496FC0180811A
:100C70009181FC0185819681A781B0850196A11D96
:100C8000B11DF90185839683A783B08789819A81F5
:100C900001969A83898329813A818BA19CA1281787
:100CA000390708F45DCF000080916C018823E1F3DF
:100CB00010926C0152CFCF93DF93CDB7DEB7A097E0
:100CC0000FB6F894DEBF0FBECDBF82E290E022E205
:100CD00030E0F90120812260FC01208380E090E077
:100CE000A0E2B1E489839A83AB83BC832BEA3AEA1E
:100CF0004AEA5EE369817A818B819C818BD3DC0136
:100D0000CB018D839E83AF83B88720E030E040E83D
:100D10005EE369817A818B819C817CD3DC01CB018C
:100D200089879A87AB87BC8720E030E040E85FE3A3
:100D30006D817E818F8198851FD288231CF481E08C
:100D40008D87A7C020E03FEF4FE757E469857A859C
:100D50008B859C855BD318160CF074C020E030E0C6
:100D60004AE754E469817A818B819C8109D2DC0154
:100D7000CB018E879F87A88BB98B20E030E04AE7B4
:100D800053E46E857F858889998944D3DC01CB0142
:100D90008A8B9B8BAC8BBD8B20E030E040E85FE31F
:100DA0006A897B898C899D89E7D188232CF481E02D
:100DB00090E09F8B8E8B3BC020E03FEF4FE757E4E6
:100DC0006A897B898C899D8921D318163CF520E09E
:100DD00030E040E251E46E857F85888999891AD395
:100DE000DC01CB01BC01CD0133D2DC01CB019F8BF7
:100DF0008E8B0FC089E190E0998F888F888D998DB7
:100E00000197F1F7998F888F8E899F8901979F8B22
:100E10008E8B8E899F89892B69F73BC06A897B8974
:100E20008C899D8915D2DC01CB019F8B8E8B8E899D
:100E30009F899B8F8A8F8A8D9B8D0197F1F79B8F5E
:100E40008A8F27C020E030E04FE753E46D817E8138
:100E50008F819885DBD21816A4F469857A858B85F5
:100E60009C85F6D1DC01CB019D8F8C8F8C8D9D8D67
:100E70009F8F8E8F8E8D9F8D0197F1F79F8F8E8F15
:100E80000EC06D817E818F819885E2D1DC01CB011E
:100E90008D878D8588A388A18A95F1F788A382E242
:100EA00090E022E230E0F90120812C7FFC012083D8
:100EB0000000A0960FB6F894DEBF0FBECDBFDF9145
:100EC000CF910895CF93DF93CDB7DEB7F4DE000066
:100ED00080E290E0FC018081882F90E0817099276A
:100EE000892BB1F381E890E021E0FC012083000030
:100EF00080E290E0FC018081882F90E0817099274A
:100F0000892BB1F781E890E0FC01108284E890E041
:100F1000FC0180819181909383018093820184E818
:100F200090E0FC01118210828091820190918301F6
:100F3000CC01A0E0B0E0BC01CD01B6D1DC01CB0119
:100F40002DEC3CE043E154E4BC01CD0119D1DC01BE
:100F5000CB01BC01CD017CD1DC01CB0190937201AE
:100F600080937101A3DA0000DF91CF910895CF93B0
:100F7000DF93CDB7DEB76E970FB6F894DEBF0FBE26
:100F8000CDBF9E8F8D8F80E090E0AAEFB3E4898380
:100F90009A83AB83BC8320E030E04AE753E4698165
:100FA0007A818B819C8136D2DC01CB018B8B9C8B2F
:100FB000AD8BBE8B20E030E040E85FE36B897C893D
:100FC0008D899E89D9D088232CF481E090E0988F78
:100FD0008F8B3BC020E03FEF4FE757E46B897C8964
:100FE0008D899E8913D218163CF520E030E040E24E
:100FF00051E469817A818B819C810CD2DC01CB0127
:10100000BC01CD0125D1DC01CB01988F8F8B0FC0A6
:1010100089E190E09A8F898F898D9A8D0197F1F7F8
:101020009A8F898F8F89988D0197988F8F8B8F8951
:10103000988D892B69F713C06B897C898D899E896E
:1010400007D1DC01CB01988F8F8B8F89988D9C8F76
:101050008B8F8B8D9C8D0197F1F79C8F8B8F80915F
:1010600026019091270140E062E066D980E090E09F
:10107000AAEFB4E48D839E83AF83B88720E030E08D
:101080004AE753E46D817E818F819885C3D1DC016D
:10109000CB0189879A87AB87BC8720E030E040E8A6
:1010A0005FE369857A858B859C8566D088232CF4DF
:1010B00081E090E09E878D873BC020E03FEF4FE7C7
:1010C00057E469857A858B859C85A0D118163CF5F7
:1010D00020E030E040E251E46D817E818F8198858F
:1010E00099D1DC01CB01BC01CD01B2D0DC01CB0137
:1010F0009E878D870FC089E190E0988B8F878F85C1
:1011000098890197F1F7988B8F878D859E85019738
:101110009E878D878D859E85892B69F713C069858C
:101120007A858B859C8594D0DC01CB019E878D8749
:101130008D859E859A8B898B89899A890197F1F78C
:101140009A8B898B40E060E083E691E0F5D840E03F
:1011500060E086E091E0F0D860E08DE053D860E098
:101160008AE050D800006E960FB6F894DEBF0FBE2E
:10117000CDBFDF91CF910895D4D008F481E00895D8
:101180000CD00AC102D140F0F9D030F021F45F3F19
:1011900019F0EBC0511134C1EEC00FD198F399236F
:1011A000C9F35523B1F3951B550BBB27AA2762172B
:1011B0007307840738F09F5F5F4F220F331F441F70
:1011C000AA1FA9F333D00E2E3AF0E0E830D09150A8
:1011D0005040E695001CCAF729D0FE2F27D0660F95
:1011E000771F881FBB1F261737074807AB07B0E8D4
:1011F00009F0BB0B802DBF01FF2793585F4F2AF0EA
:101200009E3F510568F0B1C0FBC05F3FECF3983ED4
:10121000DCF3869577956795B795F7959F5FC9F746
:10122000880F911D9695879597F90895E1E0660FCF
:10123000771F881FBB1F621773078407BA0720F048
:10124000621B730B840BBA0BEE1F88F7E0950895B1
:10125000BCD088F09F5790F0B92F9927B751A0F0D4
:10126000D1F0660F771F881F991F1AF0BA95C9F73A
:1012700012C0B13081F0C3D0B1E00895C0C0672F73
:10128000782F8827B85F39F0B93FCCF386957795EA
:101290006795B395D9F73EF49095809570956195D3
:1012A0007F4F8F4F9F4F0895E89409C097FB3EF4FE
:1012B00090958095709561957F4F8F4F9F4F9923A3
:1012C000A9F0F92F96E9BB279395F6958795779521
:1012D0006795B795F111F8CFFAF4BB0F11F460FFE1
:1012E0001BC06F5F7F4F8F4F9F4F16C0882311F039
:1012F00096E911C0772321F09EE8872F762F05C04D
:10130000662371F096E8862F70E060E02AF09A95E7
:10131000660F771F881FDAF7880F9695879597F9DC
:101320000895990F0008550FAA0BE0E8FEEF161676
:101330001706E807F907C0F012161306E407F507C9
:1013400098F0621B730B840B950B39F40A2661F03D
:10135000232B242B252B21F408950A2609F4A140E0
:10136000A6958FEF811D811D089597F99F6780E8ED
:1013700070E060E008959FEF80EC089500240A94E7
:101380001616170618060906089500240A94121660
:101390001306140605060895092E0394000C11F493
:1013A000882352F0BB0F40F4BF2B11F460FF04C040
:1013B0006F5F7F4F8F4F9F4F089557FD9058440F99
:1013C000551F59F05F3F71F04795880F97FB991FA4
:1013D00061F09F3F79F08795089512161306140661
:1013E000551FF2CF4695F1DF08C0161617061806EE
:1013F000991FF1CF86957105610508940895E894C9
:10140000BB2766277727CB0197F908958ADF08F471
:101410008FEF08950BD0C0CFB1DF28F0B6DF18F002
:10142000952309F0A2CFA7CF1124EACFC6DFA0F3FE
:10143000959FD1F3950F50E0551F629FF001729F69
:10144000BB27F00DB11D639FAA27F00DB11DAA1F88
:10145000649F6627B00DA11D661F829F2227B00DD5
:10146000A11D621F739FB00DA11D621F839FA00D60
:10147000611D221F749F3327A00D611D231F849FB0
:10148000600D211D822F762F6A2F11249F57504007
:101490008AF0E1F088234AF0EE0FFF1FBB1F661FA2
:1014A000771F881F91505040A9F79E3F510570F05B
:1014B0005CCFA6CF5F3FECF3983EDCF38695779543
:1014C0006795B795F795E7959F5FC1F7FE2B880F56
:1014D000911D9695879597F90895A1E21A2EAA1B5A
:1014E000BB1BFD010DC0AA1FBB1FEE1FFF1FA217D4
:1014F000B307E407F50720F0A21BB30BE40BF50BD1
:10150000661F771F881F991F1A9469F76095709559
:10151000809590959B01AC01BD01CF010895FB0121
:10152000DC010D900020E9F7119701900D92002049
:10153000E1F70895FB01DC0101900D920020E1F735
:101540000895FC0101900020E9F7809590958E0F99
:081550009F1F0895F894FFCFDE
:1015580001000000030044656661756C745F6E618C
:101568006D650000000000000000000000000000A1
:101578000000000028012D016E616D65006469732B
:10158800636F6E6E656374007265636F6E6E65631C
:1015980074007374617475734F4E00416C61726DA1
:1015A8000073746174757352656E616D696E67005E
:0C15B80025640041542B4E414D450000BD
:00000001FF
