:1000000045C0000060C000005EC000005CC0000091
:100010005AC0000058C0000056C0000054C0000084
:1000200052C0000050C000004EC000004CC0000094
:100030004AC00000B9C0000046C0000044C0000033
:1000400042C0000040C000003EC000003CC00000B4
:100050003AC0000038C0000036C0000034C00000C4
:1000600032C0000030C000002EC000002CC00000D4
:100070002AC0000028C0000026C0000024C00000E4
:1000800022C0000020C000001EC0000011241FBEBE
:10009000CFEFD0E4DEBFCDBF11E0A0E0B1E0E6ECF1
:1000A000F7E000E00BBF02C007900D92AA30B10745
:1000B000D9F721E0AAE0B1E001C01D92A033B20758
:1000C000E1F7C8D17EC39CCFCF93DF9300D000D09F
:1000D000CDB7DEB769837A838B839C8389819A81CC
:1000E000AB81BC818093000190930101A093020138
:1000F000B09303018091000190910101A091020150
:10010000B091030180930B0190930C01A0930D011A
:10011000B0930E0100000F900F900F900F90DF91A1
:10012000CF910895CF93DF93CDB7DEB781E890E00C
:100130002BE0FC01208388E890E02DE730E0FC0113
:10014000318320838FE690E022E0FC01208384E865
:1001500090E0FC01118210828091000190910101D8
:10016000A0910201B091030180930B0190930C01C7
:10017000A0930D01B0930E018FE590E02FE530E0E4
:10018000F90120812068FC0120830000DF91CF91DC
:100190000895CF93DF93CDB7DEB781E080930A0156
:1001A0000000DF91CF9108951F920F9200905F00A1
:1001B0000F92112400905B000F922F933F934F9367
:1001C0005F936F937F938F939F93AF93BF93EF93BF
:1001D000FF93CF93DF93CDB7DEB780910B01909162
:1001E0000C01A0910D01B0910E010197A109B10977
:1001F00080930B0190930C01A0930D01B0930E011D
:1002000080910B0190910C01A0910D01B0910E0114
:10021000892B8A2B8B2B89F4BCDF80910001909174
:100220000101A0910201B091030180930B01909311
:100230000C01A0930D01B0930E010000DF91CF914E
:10024000FF91EF91BF91AF919F918F917F916F91AE
:100250005F914F913F912F910F9000925B000F9013
:1002600000925F000F901F901895CF93DF93CDB74A
:10027000DEB72C970FB6F894DEBF0FBECDBF6D83EF
:100280007E838F83988729873A874B875C878D8108
:100290009E81AF81B88529853A854B855C85BC01F7
:1002A000CD016DD2DC01CB0189839A83AB83BC8302
:1002B00089819A81AB81BC81892B8A2B8B2B29F474
:1002C00089859A85AB85BC8511C089859A85AB8562
:1002D000BC858D839E83AF83B88789819A81AB81EA
:1002E000BC8189879A87AB87BC87D1CFBC01CD0100
:1002F0002C960FB6F894DEBF0FBECDBFDF91CF9125
:100300000895CF93DF9300D000D000D0CDB7DEB7F3
:100310009E838D831A82198213C01C821B8206C0A1
:1003200000008B819C8101969C838B838B819C81B7
:1003300087309340ACF389819A8101969A838983AF
:1003400029813A818D819E812817390734F3000075
:1003500026960FB6F894DEBF0FBECDBFDF91CF91CA
:100360000895CF93DF931F92CDB7DEB7898388E2DC
:1003700090E028E230E0F90120812F7BFC0120830E
:1003800082E290E02981FC01208388E290E028E26B
:1003900030E0F90120812068FC012083000088E220
:1003A00090E028E230E0F90120812F77FC012083E2
:1003B00082E090E0A6DF00000F90DF91CF910895DA
:1003C000CF93DF93CDB7DEB781E0CBDF0000DF91C5
:1003D000CF910895CF93DF93CDB7DEB784E690E059
:1003E00090DF88E3BEDF86E0BCDF8FE0BADF81E02C
:1003F000B8DF8AE090E085DF0000DF91CF910895BB
:10040000CF93DF9300D0CDB7DEB79A8389838981FC
:100410009A81009719F0029719F003C0000001C0FB
:10042000000089819A818130910541F082309105E7
:1004300039F0892B39F01A82198205C0000003C0F7
:10044000000001C0000089819A810F900F90DF9118
:10045000CF9108950F931F93CF93DF93CDB7DEB75E
:10046000AA970FB6F894DEBF0FBECDBF85E590E02A
:1004700020E8FC01208385E590E020E8FC01208352
:100480008AE290E020EFFC01208388E290E02FE0F8
:10049000FC01208381E290E02FEFFC01208382E2C7
:1004A00090E0FC01108287E290E02FEFFC012083B6
:1004B00088E290E0FC01108282E390E0A0E0B0E0EE
:1004C0008B839C83AD83BE8384E690E0A0E0B0E0A4
:1004D0008F839887A987BA8782E390E0A0E0B0E095
:1004E0008B879C87AD87BE8781E090E0A0E0B0E07D
:1004F0008F87988BA98BBA8B2F81388549855A8530
:100500008B819C81AD81BE81BC01CD01AEDEDC0161
:10051000CB018F87988BA98BBA8B2B853C854D851A
:100520005E858F859889A989BA89BC01CD019DDE38
:10053000DC01CB018F87988BA98BBA8B8F8598892B
:10054000A989BA898B8B9C8BAD8BBE8B8B819C814F
:10055000AD81BE812B893C894D895E89BC01CD016D
:100560000ED1DA01C9018F8B988FA98FBA8F8F8135
:100570009885A985BA852B893C894D895E89BC01FE
:10058000CD01FDD0DA01C9018B8F9C8FAD8FBE8F5D
:100590008B859C85AD85BE852B893C894D895E897F
:1005A000BC01CD01ECD0DA01C9018F8F98A3A9A3BA
:1005B000BAA386E0E4E0F1E0DE01959601900D92A9
:1005C0008A95E1F783E090E09CA38BA38FEF809363
:1005D0000F018F89988DA98DBA8D8093100190930A
:1005E0001101A0931201B09313018F89988DA98DE9
:1005F000BA8D8093140190931501A0931601B093C6
:10060000170180E092E090931901809318018B8983
:100610009C89AD89BE89BC01CD0156DD83DDDADE62
:10062000CFDE1A8219829BC089819A81880F991F17
:100630009E012F5F3F4F820F931F8496FC018081A4
:100640009181FC01258136814781508589819A817C
:10065000880F991FBE016F5F7F4F860F971F84968B
:10066000FC0180819181FC0181819281A381B4810F
:10067000281739074A075B0709F045C089819A8125
:10068000880F991F9E012F5F3F4F820F931F849603
:10069000FC010081118189819A81880F991F9E0137
:1006A0002F5F3F4F820F931F8496FC0180819181C1
:1006B000FC012185328589819A81880F991FAE01BD
:1006C0004F5F5F4F840F951F8496FC01808191815D
:1006D000FC018081082E000C990BF9010995F801A5
:1006E000808389819A81880F991F9E012F5F3F4FD8
:1006F000820F931F8496FC0180819181FC011582F9
:1007000016821782108689819A81880F991F9E010F
:100710002F5F3F4F820F931F8496FC012081318110
:1007200089819A81880F991FAE014F5F5F4F840FB7
:10073000951F8496FC0180819181FC0185819681C1
:10074000A781B0850196A11DB11DF901858396830E
:10075000A783B08789819A8101969A8389832981A9
:100760003A818BA19CA12817390708F45DCF0000BE
:1007700080910A018823E1F310920A0152CFA1E28D
:100780001A2EAA1BBB1BFD010DC0AA1FBB1FEE1F0B
:10079000FF1FA217B307E407F50720F0A21BB30B56
:1007A000E40BF50B661F771F881F991F1A9469F7D2
:1007B00060957095809590959B01AC01BD01CF012E
:0607C0000895F894FFCF3C
:0A07C600010000000F0125011A01D7
:00000001FF
